{
  "_format": "hh-sol-artifact-1",
  "contractName": "Roulette",
  "sourceName": "contracts/Roulette.sol",
  "abi": [
    {
      "inputs": [
        {
          "internalType": "address",
          "name": "_addr",
          "type": "address"
        }
      ],
      "stateMutability": "nonpayable",
      "type": "constructor"
    },
    {
      "inputs": [
        {
          "internalType": "address",
          "name": "owner",
          "type": "address"
        }
      ],
      "name": "OwnableInvalidOwner",
      "type": "error"
    },
    {
      "inputs": [
        {
          "internalType": "address",
          "name": "account",
          "type": "address"
        }
      ],
      "name": "OwnableUnauthorizedAccount",
      "type": "error"
    },
    {
      "anonymous": false,
      "inputs": [
        {
          "indexed": true,
          "internalType": "address",
          "name": "previousOwner",
          "type": "address"
        },
        {
          "indexed": true,
          "internalType": "address",
          "name": "newOwner",
          "type": "address"
        }
      ],
      "name": "OwnershipTransferred",
      "type": "event"
    },
    {
      "anonymous": false,
      "inputs": [
        {
          "components": [
            {
              "internalType": "address",
              "name": "beter",
              "type": "address"
            },
            {
              "internalType": "uint256",
              "name": "bet_type",
              "type": "uint256"
            },
            {
              "internalType": "uint256",
              "name": "bet_time",
              "type": "uint256"
            },
            {
              "internalType": "uint256",
              "name": "bet_num",
              "type": "uint256"
            },
            {
              "internalType": "uint256",
              "name": "bet_amounts",
              "type": "uint256"
            }
          ],
          "indexed": false,
          "internalType": "struct Roulette.Bet",
          "name": "bet",
          "type": "tuple"
        }
      ],
      "name": "PlaceBet",
      "type": "event"
    },
    {
      "anonymous": false,
      "inputs": [
        {
          "indexed": false,
          "internalType": "address",
          "name": "addr",
          "type": "address"
        },
        {
          "indexed": false,
          "internalType": "uint256",
          "name": "amounts",
          "type": "uint256"
        }
      ],
      "name": "WinFund",
      "type": "event"
    },
    {
      "inputs": [],
      "name": "bank",
      "outputs": [
        {
          "internalType": "contract Bank",
          "name": "",
          "type": "address"
        }
      ],
      "stateMutability": "view",
      "type": "function"
    },
    {
      "inputs": [
        {
          "internalType": "uint256",
          "name": "",
          "type": "uint256"
        }
      ],
      "name": "bets",
      "outputs": [
        {
          "internalType": "address",
          "name": "beter",
          "type": "address"
        },
        {
          "internalType": "uint256",
          "name": "bet_type",
          "type": "uint256"
        },
        {
          "internalType": "uint256",
          "name": "bet_time",
          "type": "uint256"
        },
        {
          "internalType": "uint256",
          "name": "bet_num",
          "type": "uint256"
        },
        {
          "internalType": "uint256",
          "name": "bet_amounts",
          "type": "uint256"
        }
      ],
      "stateMutability": "view",
      "type": "function"
    },
    {
      "inputs": [],
      "name": "betsLength",
      "outputs": [
        {
          "internalType": "uint256",
          "name": "",
          "type": "uint256"
        }
      ],
      "stateMutability": "view",
      "type": "function"
    },
    {
      "inputs": [
        {
          "components": [
            {
              "internalType": "address",
              "name": "beter",
              "type": "address"
            },
            {
              "internalType": "uint256",
              "name": "bet_type",
              "type": "uint256"
            },
            {
              "internalType": "uint256",
              "name": "bet_time",
              "type": "uint256"
            },
            {
              "internalType": "uint256",
              "name": "bet_num",
              "type": "uint256"
            },
            {
              "internalType": "uint256",
              "name": "bet_amounts",
              "type": "uint256"
            }
          ],
          "internalType": "struct Roulette.Bet",
          "name": "bet",
          "type": "tuple"
        },
        {
          "internalType": "uint256",
          "name": "_roll",
          "type": "uint256"
        }
      ],
      "name": "calcWinner",
      "outputs": [
        {
          "internalType": "uint256",
          "name": "",
          "type": "uint256"
        }
      ],
      "stateMutability": "pure",
      "type": "function"
    },
    {
      "inputs": [],
      "name": "owner",
      "outputs": [
        {
          "internalType": "address",
          "name": "",
          "type": "address"
        }
      ],
      "stateMutability": "view",
      "type": "function"
    },
    {
      "inputs": [
        {
          "internalType": "uint256",
          "name": "_bet_type",
          "type": "uint256"
        },
        {
          "internalType": "uint256",
          "name": "_bet_num",
          "type": "uint256"
        },
        {
          "internalType": "uint256",
          "name": "_bet_amounts",
          "type": "uint256"
        }
      ],
      "name": "place_bet",
      "outputs": [],
      "stateMutability": "nonpayable",
      "type": "function"
    },
    {
      "inputs": [],
      "name": "play",
      "outputs": [],
      "stateMutability": "nonpayable",
      "type": "function"
    },
    {
      "inputs": [],
      "name": "renounceOwnership",
      "outputs": [],
      "stateMutability": "nonpayable",
      "type": "function"
    },
    {
      "inputs": [
        {
          "internalType": "address",
          "name": "newOwner",
          "type": "address"
        }
      ],
      "name": "transferOwnership",
      "outputs": [],
      "stateMutability": "nonpayable",
      "type": "function"
    }
  ],
  "bytecode": "0x60806040523480156200001157600080fd5b506040516200131138038062001311833981810160405281019062000037919062000235565b33600073ffffffffffffffffffffffffffffffffffffffff168173ffffffffffffffffffffffffffffffffffffffff1603620000ad5760006040517f1e4fbdf7000000000000000000000000000000000000000000000000000000008152600401620000a4919062000278565b60405180910390fd5b620000be816200010760201b60201c565b5080600160006101000a81548173ffffffffffffffffffffffffffffffffffffffff021916908373ffffffffffffffffffffffffffffffffffffffff1602179055505062000295565b60008060009054906101000a900473ffffffffffffffffffffffffffffffffffffffff169050816000806101000a81548173ffffffffffffffffffffffffffffffffffffffff021916908373ffffffffffffffffffffffffffffffffffffffff1602179055508173ffffffffffffffffffffffffffffffffffffffff168173ffffffffffffffffffffffffffffffffffffffff167f8be0079c531659141344cd1fd0a4f28419497f9722a3daafe3b4186f6b6457e060405160405180910390a35050565b600080fd5b600073ffffffffffffffffffffffffffffffffffffffff82169050919050565b6000620001fd82620001d0565b9050919050565b6200020f81620001f0565b81146200021b57600080fd5b50565b6000815190506200022f8162000204565b92915050565b6000602082840312156200024e576200024d620001cb565b5b60006200025e848285016200021e565b91505092915050565b6200027281620001f0565b82525050565b60006020820190506200028f600083018462000267565b92915050565b61106c80620002a56000396000f3fe608060405234801561001057600080fd5b50600436106100935760003560e01c80637c68f2b9116100665780637c68f2b9146101245780638da5cb5b1461014057806393e84cd91461015e578063bbd2e01e14610168578063f2fde38b1461018657610093565b806322af00fa146100985780634e2bb54f146100cc578063715018a6146100fc57806376cdb03b14610106575b600080fd5b6100b260048036038101906100ad9190610a4e565b6101a2565b6040516100c3959493929190610acb565b60405180910390f35b6100e660048036038101906100e19190610c67565b610208565b6040516100f39190610ca7565b60405180910390f35b61010461029e565b005b61010e6102b2565b60405161011b9190610d21565b60405180910390f35b61013e60048036038101906101399190610d3c565b6102d8565b005b610148610482565b6040516101559190610d8f565b60405180910390f35b6101666104ab565b005b610170610710565b60405161017d9190610ca7565b60405180910390f35b6101a0600480360381019061019b9190610daa565b61071d565b005b600281815481106101b257600080fd5b90600052602060002090600502016000915090508060000160009054906101000a900473ffffffffffffffffffffffffffffffffffffffff16908060010154908060020154908060030154908060040154905085565b6000808360200151036102565761021e826107a3565b61022957600161022c565b60005b60ff16836060015103610251576002836080015161024a9190610e06565b9050610298565b610293565b60018360200151036102925760028261026f9190610e77565b836060015103610291576002836080015161028a9190610e06565b9050610298565b5b5b600090505b92915050565b6102a66107f4565b6102b0600061087b565b565b600160009054906101000a900473ffffffffffffffffffffffffffffffffffffffff1681565b60006040518060a001604052803373ffffffffffffffffffffffffffffffffffffffff168152602001858152602001428152602001848152602001838152509050600281908060018154018082558091505060019003906000526020600020906005020160009091909190915060008201518160000160006101000a81548173ffffffffffffffffffffffffffffffffffffffff021916908373ffffffffffffffffffffffffffffffffffffffff160217905550602082015181600101556040820151816002015560608201518160030155608082015181600401555050600160009054906101000a900473ffffffffffffffffffffffffffffffffffffffff1673ffffffffffffffffffffffffffffffffffffffff1663f968954e33846040518363ffffffff1660e01b8152600401610413929190610ea8565b600060405180830381600087803b15801561042d57600080fd5b505af1158015610441573d6000803e3d6000fd5b505050507f3e9db003453ae07fd7ab02f4e21dab9fc7545ec5476b9823d2b4c3baf223323f816040516104749190610f57565b60405180910390a150505050565b60008060009054906101000a900473ffffffffffffffffffffffffffffffffffffffff16905090565b6104b36107f4565b60006104bf602561093f565b905060005b6002805490508110156106fe576000610587600283815481106104ea576104e9610f72565b5b90600052602060002090600502016040518060a00160405290816000820160009054906101000a900473ffffffffffffffffffffffffffffffffffffffff1673ffffffffffffffffffffffffffffffffffffffff1673ffffffffffffffffffffffffffffffffffffffff16815260200160018201548152602001600282015481526020016003820154815260200160048201548152505084610208565b905060008111156106e957600160009054906101000a900473ffffffffffffffffffffffffffffffffffffffff1673ffffffffffffffffffffffffffffffffffffffff1663bc4b3365600284815481106105e4576105e3610f72565b5b906000526020600020906005020160000160009054906101000a900473ffffffffffffffffffffffffffffffffffffffff16836040518363ffffffff1660e01b8152600401610634929190610ea8565b600060405180830381600087803b15801561064e57600080fd5b505af1158015610662573d6000803e3d6000fd5b505050507f79166ed647ea7e9efa3de349320bb43e28d04637a86429193d882d8f0e01fb436002838154811061069b5761069a610f72565b5b906000526020600020906005020160000160009054906101000a900473ffffffffffffffffffffffffffffffffffffffff16826040516106dc929190610ea8565b60405180910390a16106ea565b5b5080806106f690610fa1565b9150506104c4565b506002600061070d9190610987565b50565b6000600280549050905090565b6107256107f4565b600073ffffffffffffffffffffffffffffffffffffffff168173ffffffffffffffffffffffffffffffffffffffff16036107975760006040517f1e4fbdf700000000000000000000000000000000000000000000000000000000815260040161078e9190610d8f565b60405180910390fd5b6107a08161087b565b50565b6000600b8210806107c057506012821180156107bf5750601d82105b5b156107dc5760016002836107d49190610e77565b1490506107ef565b60006002836107eb9190610e77565b1490505b919050565b6107fc61097f565b73ffffffffffffffffffffffffffffffffffffffff1661081a610482565b73ffffffffffffffffffffffffffffffffffffffff16146108795761083d61097f565b6040517f118cdaa70000000000000000000000000000000000000000000000000000000081526004016108709190610d8f565b60405180910390fd5b565b60008060009054906101000a900473ffffffffffffffffffffffffffffffffffffffff169050816000806101000a81548173ffffffffffffffffffffffffffffffffffffffff021916908373ffffffffffffffffffffffffffffffffffffffff1602179055508173ffffffffffffffffffffffffffffffffffffffff168173ffffffffffffffffffffffffffffffffffffffff167f8be0079c531659141344cd1fd0a4f28419497f9722a3daafe3b4186f6b6457e060405160405180910390a35050565b600081444260405160200161095592919061100a565b6040516020818303038152906040528051906020012060001c6109789190610e77565b9050919050565b600033905090565b50805460008255600502906000526020600020908101906109a891906109ab565b50565b5b80821115610a0557600080820160006101000a81549073ffffffffffffffffffffffffffffffffffffffff02191690556001820160009055600282016000905560038201600090556004820160009055506005016109ac565b5090565b6000604051905090565b600080fd5b6000819050919050565b610a2b81610a18565b8114610a3657600080fd5b50565b600081359050610a4881610a22565b92915050565b600060208284031215610a6457610a63610a13565b5b6000610a7284828501610a39565b91505092915050565b600073ffffffffffffffffffffffffffffffffffffffff82169050919050565b6000610aa682610a7b565b9050919050565b610ab681610a9b565b82525050565b610ac581610a18565b82525050565b600060a082019050610ae06000830188610aad565b610aed6020830187610abc565b610afa6040830186610abc565b610b076060830185610abc565b610b146080830184610abc565b9695505050505050565b600080fd5b6000601f19601f8301169050919050565b7f4e487b7100000000000000000000000000000000000000000000000000000000600052604160045260246000fd5b610b6c82610b23565b810181811067ffffffffffffffff82111715610b8b57610b8a610b34565b5b80604052505050565b6000610b9e610a09565b9050610baa8282610b63565b919050565b610bb881610a9b565b8114610bc357600080fd5b50565b600081359050610bd581610baf565b92915050565b600060a08284031215610bf157610bf0610b1e565b5b610bfb60a0610b94565b90506000610c0b84828501610bc6565b6000830152506020610c1f84828501610a39565b6020830152506040610c3384828501610a39565b6040830152506060610c4784828501610a39565b6060830152506080610c5b84828501610a39565b60808301525092915050565b60008060c08385031215610c7e57610c7d610a13565b5b6000610c8c85828601610bdb565b92505060a0610c9d85828601610a39565b9150509250929050565b6000602082019050610cbc6000830184610abc565b92915050565b6000819050919050565b6000610ce7610ce2610cdd84610a7b565b610cc2565b610a7b565b9050919050565b6000610cf982610ccc565b9050919050565b6000610d0b82610cee565b9050919050565b610d1b81610d00565b82525050565b6000602082019050610d366000830184610d12565b92915050565b600080600060608486031215610d5557610d54610a13565b5b6000610d6386828701610a39565b9350506020610d7486828701610a39565b9250506040610d8586828701610a39565b9150509250925092565b6000602082019050610da46000830184610aad565b92915050565b600060208284031215610dc057610dbf610a13565b5b6000610dce84828501610bc6565b91505092915050565b7f4e487b7100000000000000000000000000000000000000000000000000000000600052601160045260246000fd5b6000610e1182610a18565b9150610e1c83610a18565b9250828202610e2a81610a18565b91508282048414831517610e4157610e40610dd7565b5b5092915050565b7f4e487b7100000000000000000000000000000000000000000000000000000000600052601260045260246000fd5b6000610e8282610a18565b9150610e8d83610a18565b925082610e9d57610e9c610e48565b5b828206905092915050565b6000604082019050610ebd6000830185610aad565b610eca6020830184610abc565b9392505050565b610eda81610a9b565b82525050565b610ee981610a18565b82525050565b60a082016000820151610f056000850182610ed1565b506020820151610f186020850182610ee0565b506040820151610f2b6040850182610ee0565b506060820151610f3e6060850182610ee0565b506080820151610f516080850182610ee0565b50505050565b600060a082019050610f6c6000830184610eef565b92915050565b7f4e487b7100000000000000000000000000000000000000000000000000000000600052603260045260246000fd5b6000610fac82610a18565b91507fffffffffffffffffffffffffffffffffffffffffffffffffffffffffffffffff8203610fde57610fdd610dd7565b5b600182019050919050565b6000819050919050565b611004610fff82610a18565b610fe9565b82525050565b60006110168285610ff3565b6020820191506110268284610ff3565b602082019150819050939250505056fea26469706673582212209b1fcf203eed87d205d15fb53ee06e363cf028dfee0d38648dc4b77effdf3c5564736f6c63430008140033",
  "linkReferences": {},
  "deployedLinkReferences": {}
}