{
  "_format": "hh-sol-artifact-1",
  "contractName": "Roulette",
  "sourceName": "contracts/Roulette.sol",
  "abi": [
    {
      "inputs": [
        {
          "internalType": "address",
          "name": "_addr",
          "type": "address"
        }
      ],
      "stateMutability": "nonpayable",
      "type": "constructor"
    },
    {
      "inputs": [
        {
          "internalType": "address",
          "name": "owner",
          "type": "address"
        }
      ],
      "name": "OwnableInvalidOwner",
      "type": "error"
    },
    {
      "inputs": [
        {
          "internalType": "address",
          "name": "account",
          "type": "address"
        }
      ],
      "name": "OwnableUnauthorizedAccount",
      "type": "error"
    },
    {
      "anonymous": false,
      "inputs": [
        {
          "indexed": true,
          "internalType": "address",
          "name": "previousOwner",
          "type": "address"
        },
        {
          "indexed": true,
          "internalType": "address",
          "name": "newOwner",
          "type": "address"
        }
      ],
      "name": "OwnershipTransferred",
      "type": "event"
    },
    {
      "anonymous": false,
      "inputs": [
        {
          "components": [
            {
              "internalType": "address",
              "name": "beter",
              "type": "address"
            },
            {
              "internalType": "uint256",
              "name": "bet_type",
              "type": "uint256"
            },
            {
              "internalType": "uint256",
              "name": "bet_time",
              "type": "uint256"
            },
            {
              "internalType": "uint256",
              "name": "bet_num",
              "type": "uint256"
            },
            {
              "internalType": "uint256",
              "name": "bet_amounts",
              "type": "uint256"
            }
          ],
          "indexed": false,
          "internalType": "struct Roulette.Bet",
          "name": "bet",
          "type": "tuple"
        }
      ],
      "name": "PlaceBet",
      "type": "event"
    },
    {
      "anonymous": false,
      "inputs": [
        {
          "indexed": false,
          "internalType": "address",
          "name": "addr",
          "type": "address"
        },
        {
          "indexed": false,
          "internalType": "uint256",
          "name": "amounts",
          "type": "uint256"
        }
      ],
      "name": "WinFund",
      "type": "event"
    },
    {
      "inputs": [],
      "name": "bank",
      "outputs": [
        {
          "internalType": "contract Bank",
          "name": "",
          "type": "address"
        }
      ],
      "stateMutability": "view",
      "type": "function"
    },
    {
      "inputs": [
        {
          "internalType": "uint256",
          "name": "",
          "type": "uint256"
        }
      ],
      "name": "bets",
      "outputs": [
        {
          "internalType": "address",
          "name": "beter",
          "type": "address"
        },
        {
          "internalType": "uint256",
          "name": "bet_type",
          "type": "uint256"
        },
        {
          "internalType": "uint256",
          "name": "bet_time",
          "type": "uint256"
        },
        {
          "internalType": "uint256",
          "name": "bet_num",
          "type": "uint256"
        },
        {
          "internalType": "uint256",
          "name": "bet_amounts",
          "type": "uint256"
        }
      ],
      "stateMutability": "view",
      "type": "function"
    },
    {
      "inputs": [],
      "name": "betsLength",
      "outputs": [
        {
          "internalType": "uint256",
          "name": "",
          "type": "uint256"
        }
      ],
      "stateMutability": "view",
      "type": "function"
    },
    {
      "inputs": [
        {
          "components": [
            {
              "internalType": "address",
              "name": "beter",
              "type": "address"
            },
            {
              "internalType": "uint256",
              "name": "bet_type",
              "type": "uint256"
            },
            {
              "internalType": "uint256",
              "name": "bet_time",
              "type": "uint256"
            },
            {
              "internalType": "uint256",
              "name": "bet_num",
              "type": "uint256"
            },
            {
              "internalType": "uint256",
              "name": "bet_amounts",
              "type": "uint256"
            }
          ],
          "internalType": "struct Roulette.Bet",
          "name": "bet",
          "type": "tuple"
        },
        {
          "internalType": "uint256",
          "name": "_roll",
          "type": "uint256"
        }
      ],
      "name": "calcWinner",
      "outputs": [
        {
          "internalType": "uint256",
          "name": "",
          "type": "uint256"
        }
      ],
      "stateMutability": "pure",
      "type": "function"
    },
    {
      "inputs": [],
      "name": "getRollLength",
      "outputs": [
        {
          "internalType": "uint256",
          "name": "",
          "type": "uint256"
        }
      ],
      "stateMutability": "view",
      "type": "function"
    },
    {
      "inputs": [],
      "name": "owner",
      "outputs": [
        {
          "internalType": "address",
          "name": "",
          "type": "address"
        }
      ],
      "stateMutability": "view",
      "type": "function"
    },
    {
      "inputs": [
        {
          "internalType": "uint256",
          "name": "_bet_type",
          "type": "uint256"
        },
        {
          "internalType": "uint256",
          "name": "_bet_num",
          "type": "uint256"
        },
        {
          "internalType": "uint256",
          "name": "_bet_amounts",
          "type": "uint256"
        }
      ],
      "name": "place_bet",
      "outputs": [],
      "stateMutability": "nonpayable",
      "type": "function"
    },
    {
      "inputs": [],
      "name": "play",
      "outputs": [],
      "stateMutability": "nonpayable",
      "type": "function"
    },
    {
      "inputs": [],
      "name": "renounceOwnership",
      "outputs": [],
      "stateMutability": "nonpayable",
      "type": "function"
    },
    {
      "inputs": [
        {
          "internalType": "uint256",
          "name": "",
          "type": "uint256"
        }
      ],
      "name": "rolleds",
      "outputs": [
        {
          "internalType": "uint256",
          "name": "",
          "type": "uint256"
        }
      ],
      "stateMutability": "view",
      "type": "function"
    },
    {
      "inputs": [
        {
          "internalType": "address",
          "name": "newOwner",
          "type": "address"
        }
      ],
      "name": "transferOwnership",
      "outputs": [],
      "stateMutability": "nonpayable",
      "type": "function"
    }
  ],
  "bytecode": "0x60806040523480156200001157600080fd5b50604051620013cf380380620013cf833981810160405281019062000037919062000235565b33600073ffffffffffffffffffffffffffffffffffffffff168173ffffffffffffffffffffffffffffffffffffffff1603620000ad5760006040517f1e4fbdf7000000000000000000000000000000000000000000000000000000008152600401620000a4919062000278565b60405180910390fd5b620000be816200010760201b60201c565b5080600160006101000a81548173ffffffffffffffffffffffffffffffffffffffff021916908373ffffffffffffffffffffffffffffffffffffffff1602179055505062000295565b60008060009054906101000a900473ffffffffffffffffffffffffffffffffffffffff169050816000806101000a81548173ffffffffffffffffffffffffffffffffffffffff021916908373ffffffffffffffffffffffffffffffffffffffff1602179055508173ffffffffffffffffffffffffffffffffffffffff168173ffffffffffffffffffffffffffffffffffffffff167f8be0079c531659141344cd1fd0a4f28419497f9722a3daafe3b4186f6b6457e060405160405180910390a35050565b600080fd5b600073ffffffffffffffffffffffffffffffffffffffff82169050919050565b6000620001fd82620001d0565b9050919050565b6200020f81620001f0565b81146200021b57600080fd5b50565b6000815190506200022f8162000204565b92915050565b6000602082840312156200024e576200024d620001cb565b5b60006200025e848285016200021e565b91505092915050565b6200027281620001f0565b82525050565b60006020820190506200028f600083018462000267565b92915050565b61112a80620002a56000396000f3fe608060405234801561001057600080fd5b50600436106100a95760003560e01c806376cdb03b1161007157806376cdb03b1461016a5780637c68f2b9146101885780638da5cb5b146101a457806393e84cd9146101c2578063bbd2e01e146101cc578063f2fde38b146101ea576100a9565b806322af00fa146100ae57806327a4fdb8146100e25780633eb380a0146101125780634e2bb54f14610130578063715018a614610160575b600080fd5b6100c860048036038101906100c39190610b0c565b610206565b6040516100d9959493929190610b89565b60405180910390f35b6100fc60048036038101906100f79190610b0c565b61026c565b6040516101099190610bdc565b60405180910390f35b61011a610290565b6040516101279190610bdc565b60405180910390f35b61014a60048036038101906101459190610d40565b61029d565b6040516101579190610bdc565b60405180910390f35b610168610333565b005b610172610347565b60405161017f9190610ddf565b60405180910390f35b6101a2600480360381019061019d9190610dfa565b61036d565b005b6101ac610517565b6040516101b99190610e4d565b60405180910390f35b6101ca610540565b005b6101d46107ce565b6040516101e19190610bdc565b60405180910390f35b61020460048036038101906101ff9190610e68565b6107db565b005b6002818154811061021657600080fd5b90600052602060002090600502016000915090508060000160009054906101000a900473ffffffffffffffffffffffffffffffffffffffff16908060010154908060020154908060030154908060040154905085565b6003818154811061027c57600080fd5b906000526020600020016000915090505481565b6000600380549050905090565b6000808360200151036102eb576102b382610861565b6102be5760016102c1565b60005b60ff168360600151036102e657600283608001516102df9190610ec4565b905061032d565b610328565b6001836020015103610327576002826103049190610f35565b836060015103610326576002836080015161031f9190610ec4565b905061032d565b5b5b600090505b92915050565b61033b6108b2565b6103456000610939565b565b600160009054906101000a900473ffffffffffffffffffffffffffffffffffffffff1681565b60006040518060a001604052803373ffffffffffffffffffffffffffffffffffffffff168152602001858152602001428152602001848152602001838152509050600281908060018154018082558091505060019003906000526020600020906005020160009091909190915060008201518160000160006101000a81548173ffffffffffffffffffffffffffffffffffffffff021916908373ffffffffffffffffffffffffffffffffffffffff160217905550602082015181600101556040820151816002015560608201518160030155608082015181600401555050600160009054906101000a900473ffffffffffffffffffffffffffffffffffffffff1673ffffffffffffffffffffffffffffffffffffffff1663f968954e33846040518363ffffffff1660e01b81526004016104a8929190610f66565b600060405180830381600087803b1580156104c257600080fd5b505af11580156104d6573d6000803e3d6000fd5b505050507f3e9db003453ae07fd7ab02f4e21dab9fc7545ec5476b9823d2b4c3baf223323f816040516105099190611015565b60405180910390a150505050565b60008060009054906101000a900473ffffffffffffffffffffffffffffffffffffffff16905090565b6105486108b2565b600061055460256109fd565b9050600381908060018154018082558091505060019003906000526020600020016000909190919091505560005b6002805490508110156107bc576000610645600283815481106105a8576105a7611030565b5b90600052602060002090600502016040518060a00160405290816000820160009054906101000a900473ffffffffffffffffffffffffffffffffffffffff1673ffffffffffffffffffffffffffffffffffffffff1673ffffffffffffffffffffffffffffffffffffffff1681526020016001820154815260200160028201548152602001600382015481526020016004820154815250508461029d565b905060008111156107a757600160009054906101000a900473ffffffffffffffffffffffffffffffffffffffff1673ffffffffffffffffffffffffffffffffffffffff1663bc4b3365600284815481106106a2576106a1611030565b5b906000526020600020906005020160000160009054906101000a900473ffffffffffffffffffffffffffffffffffffffff16836040518363ffffffff1660e01b81526004016106f2929190610f66565b600060405180830381600087803b15801561070c57600080fd5b505af1158015610720573d6000803e3d6000fd5b505050507f79166ed647ea7e9efa3de349320bb43e28d04637a86429193d882d8f0e01fb436002838154811061075957610758611030565b5b906000526020600020906005020160000160009054906101000a900473ffffffffffffffffffffffffffffffffffffffff168260405161079a929190610f66565b60405180910390a16107a8565b5b5080806107b49061105f565b915050610582565b50600260006107cb9190610a45565b50565b6000600280549050905090565b6107e36108b2565b600073ffffffffffffffffffffffffffffffffffffffff168173ffffffffffffffffffffffffffffffffffffffff16036108555760006040517f1e4fbdf700000000000000000000000000000000000000000000000000000000815260040161084c9190610e4d565b60405180910390fd5b61085e81610939565b50565b6000600b82108061087e575060128211801561087d5750601d82105b5b1561089a5760016002836108929190610f35565b1490506108ad565b60006002836108a99190610f35565b1490505b919050565b6108ba610a3d565b73ffffffffffffffffffffffffffffffffffffffff166108d8610517565b73ffffffffffffffffffffffffffffffffffffffff1614610937576108fb610a3d565b6040517f118cdaa700000000000000000000000000000000000000000000000000000000815260040161092e9190610e4d565b60405180910390fd5b565b60008060009054906101000a900473ffffffffffffffffffffffffffffffffffffffff169050816000806101000a81548173ffffffffffffffffffffffffffffffffffffffff021916908373ffffffffffffffffffffffffffffffffffffffff1602179055508173ffffffffffffffffffffffffffffffffffffffff168173ffffffffffffffffffffffffffffffffffffffff167f8be0079c531659141344cd1fd0a4f28419497f9722a3daafe3b4186f6b6457e060405160405180910390a35050565b6000814442604051602001610a139291906110c8565b6040516020818303038152906040528051906020012060001c610a369190610f35565b9050919050565b600033905090565b5080546000825560050290600052602060002090810190610a669190610a69565b50565b5b80821115610ac357600080820160006101000a81549073ffffffffffffffffffffffffffffffffffffffff0219169055600182016000905560028201600090556003820160009055600482016000905550600501610a6a565b5090565b6000604051905090565b600080fd5b6000819050919050565b610ae981610ad6565b8114610af457600080fd5b50565b600081359050610b0681610ae0565b92915050565b600060208284031215610b2257610b21610ad1565b5b6000610b3084828501610af7565b91505092915050565b600073ffffffffffffffffffffffffffffffffffffffff82169050919050565b6000610b6482610b39565b9050919050565b610b7481610b59565b82525050565b610b8381610ad6565b82525050565b600060a082019050610b9e6000830188610b6b565b610bab6020830187610b7a565b610bb86040830186610b7a565b610bc56060830185610b7a565b610bd26080830184610b7a565b9695505050505050565b6000602082019050610bf16000830184610b7a565b92915050565b600080fd5b6000601f19601f8301169050919050565b7f4e487b7100000000000000000000000000000000000000000000000000000000600052604160045260246000fd5b610c4582610bfc565b810181811067ffffffffffffffff82111715610c6457610c63610c0d565b5b80604052505050565b6000610c77610ac7565b9050610c838282610c3c565b919050565b610c9181610b59565b8114610c9c57600080fd5b50565b600081359050610cae81610c88565b92915050565b600060a08284031215610cca57610cc9610bf7565b5b610cd460a0610c6d565b90506000610ce484828501610c9f565b6000830152506020610cf884828501610af7565b6020830152506040610d0c84828501610af7565b6040830152506060610d2084828501610af7565b6060830152506080610d3484828501610af7565b60808301525092915050565b60008060c08385031215610d5757610d56610ad1565b5b6000610d6585828601610cb4565b92505060a0610d7685828601610af7565b9150509250929050565b6000819050919050565b6000610da5610da0610d9b84610b39565b610d80565b610b39565b9050919050565b6000610db782610d8a565b9050919050565b6000610dc982610dac565b9050919050565b610dd981610dbe565b82525050565b6000602082019050610df46000830184610dd0565b92915050565b600080600060608486031215610e1357610e12610ad1565b5b6000610e2186828701610af7565b9350506020610e3286828701610af7565b9250506040610e4386828701610af7565b9150509250925092565b6000602082019050610e626000830184610b6b565b92915050565b600060208284031215610e7e57610e7d610ad1565b5b6000610e8c84828501610c9f565b91505092915050565b7f4e487b7100000000000000000000000000000000000000000000000000000000600052601160045260246000fd5b6000610ecf82610ad6565b9150610eda83610ad6565b9250828202610ee881610ad6565b91508282048414831517610eff57610efe610e95565b5b5092915050565b7f4e487b7100000000000000000000000000000000000000000000000000000000600052601260045260246000fd5b6000610f4082610ad6565b9150610f4b83610ad6565b925082610f5b57610f5a610f06565b5b828206905092915050565b6000604082019050610f7b6000830185610b6b565b610f886020830184610b7a565b9392505050565b610f9881610b59565b82525050565b610fa781610ad6565b82525050565b60a082016000820151610fc36000850182610f8f565b506020820151610fd66020850182610f9e565b506040820151610fe96040850182610f9e565b506060820151610ffc6060850182610f9e565b50608082015161100f6080850182610f9e565b50505050565b600060a08201905061102a6000830184610fad565b92915050565b7f4e487b7100000000000000000000000000000000000000000000000000000000600052603260045260246000fd5b600061106a82610ad6565b91507fffffffffffffffffffffffffffffffffffffffffffffffffffffffffffffffff820361109c5761109b610e95565b5b600182019050919050565b6000819050919050565b6110c26110bd82610ad6565b6110a7565b82525050565b60006110d482856110b1565b6020820191506110e482846110b1565b602082019150819050939250505056fea2646970667358221220296f5882364b950c9486a1848db31681999c0008de300d594b18a896638c0bce64736f6c63430008140033",
  "linkReferences": {},
  "deployedLinkReferences": {}
}