{
  "_format": "hh-sol-artifact-1",
  "contractName": "ChuckALuck",
  "sourceName": "contracts/ChuckALuck.sol",
  "abi": [
    {
      "inputs": [
        {
          "internalType": "address",
          "name": "vrfCoordinator",
          "type": "address"
        },
        {
          "internalType": "address",
          "name": "linkToken",
          "type": "address"
        },
        {
          "internalType": "bytes32",
          "name": "keyHash",
          "type": "bytes32"
        },
        {
          "internalType": "uint256",
          "name": "fee",
          "type": "uint256"
        },
        {
          "internalType": "address",
          "name": "_addr",
          "type": "address"
        }
      ],
      "stateMutability": "nonpayable",
      "type": "constructor"
    },
    {
      "anonymous": false,
      "inputs": [
        {
          "indexed": false,
          "internalType": "address",
          "name": "addr",
          "type": "address"
        },
        {
          "indexed": false,
          "internalType": "uint256",
          "name": "amounts",
          "type": "uint256"
        }
      ],
      "name": "WinFund",
      "type": "event"
    },
    {
      "inputs": [],
      "name": "bank",
      "outputs": [
        {
          "internalType": "contract Bank",
          "name": "",
          "type": "address"
        }
      ],
      "stateMutability": "view",
      "type": "function"
    },
    {
      "inputs": [
        {
          "internalType": "bytes32",
          "name": "",
          "type": "bytes32"
        }
      ],
      "name": "bets",
      "outputs": [
        {
          "internalType": "address",
          "name": "beter",
          "type": "address"
        },
        {
          "internalType": "uint256",
          "name": "bet_time",
          "type": "uint256"
        },
        {
          "internalType": "uint256",
          "name": "bet_num",
          "type": "uint256"
        },
        {
          "internalType": "uint256",
          "name": "bet_amounts",
          "type": "uint256"
        }
      ],
      "stateMutability": "view",
      "type": "function"
    },
    {
      "inputs": [
        {
          "components": [
            {
              "internalType": "address",
              "name": "beter",
              "type": "address"
            },
            {
              "internalType": "uint256",
              "name": "bet_time",
              "type": "uint256"
            },
            {
              "internalType": "uint256",
              "name": "bet_num",
              "type": "uint256"
            },
            {
              "internalType": "uint256",
              "name": "bet_amounts",
              "type": "uint256"
            }
          ],
          "internalType": "struct ChuckALuck.Bet",
          "name": "bet",
          "type": "tuple"
        },
        {
          "internalType": "uint256[]",
          "name": "_roll",
          "type": "uint256[]"
        }
      ],
      "name": "calcWinner",
      "outputs": [
        {
          "internalType": "uint256",
          "name": "",
          "type": "uint256"
        }
      ],
      "stateMutability": "pure",
      "type": "function"
    },
    {
      "inputs": [
        {
          "internalType": "uint256",
          "name": "_bet_num",
          "type": "uint256"
        },
        {
          "internalType": "uint256",
          "name": "_bet_amounts",
          "type": "uint256"
        }
      ],
      "name": "place_bet",
      "outputs": [],
      "stateMutability": "nonpayable",
      "type": "function"
    },
    {
      "inputs": [
        {
          "internalType": "bytes32",
          "name": "requestId",
          "type": "bytes32"
        },
        {
          "internalType": "uint256",
          "name": "randomness",
          "type": "uint256"
        }
      ],
      "name": "rawFulfillRandomness",
      "outputs": [],
      "stateMutability": "nonpayable",
      "type": "function"
    }
  ],
  "bytecode": "0x60c06040523480156200001157600080fd5b506040516200114a3803806200114a8339818101604052810190620000379190620001dd565b84848173ffffffffffffffffffffffffffffffffffffffff1660a08173ffffffffffffffffffffffffffffffffffffffff16815250508073ffffffffffffffffffffffffffffffffffffffff1660808173ffffffffffffffffffffffffffffffffffffffff16815250505050826003819055508160048190555080600260006101000a81548173ffffffffffffffffffffffffffffffffffffffff021916908373ffffffffffffffffffffffffffffffffffffffff160217905550505050505062000265565b600080fd5b600073ffffffffffffffffffffffffffffffffffffffff82169050919050565b60006200012f8262000102565b9050919050565b620001418162000122565b81146200014d57600080fd5b50565b600081519050620001618162000136565b92915050565b6000819050919050565b6200017c8162000167565b81146200018857600080fd5b50565b6000815190506200019c8162000171565b92915050565b6000819050919050565b620001b781620001a2565b8114620001c357600080fd5b50565b600081519050620001d781620001ac565b92915050565b600080600080600060a08688031215620001fc57620001fb620000fd565b5b60006200020c8882890162000150565b95505060206200021f8882890162000150565b945050604062000232888289016200018b565b93505060606200024588828901620001c6565b9250506080620002588882890162000150565b9150509295509295909350565b60805160a051610ec2620002886000396000610373015260005050610ec26000f3fe608060405234801561001057600080fd5b50600436106100575760003560e01c8063601282411461005c57806376cdb03b1461008c57806391c43ab7146100aa57806394985ddd146100c6578063c902c3ae146100e2575b600080fd5b610076600480360381019061007191906109bd565b610115565b6040516100839190610a28565b60405180910390f35b6100946101e0565b6040516100a19190610aa2565b60405180910390f35b6100c460048036038101906100bf9190610abd565b610206565b005b6100e060048036038101906100db9190610b33565b610371565b005b6100fc60048036038101906100f79190610b73565b61040d565b60405161010c9493929190610baf565b60405180910390f35b6000806000905060005b83518110156101705784604001518482815181106101405761013f610bf4565b5b60200260200101510361015d5760018261015a9190610c52565b91505b808061016890610c86565b91505061011f565b5060018103610192576002846060015161018a9190610cce565b9150506101da565b600281036101b357600384606001516101ab9190610cce565b9150506101da565b600381036101d457600b84606001516101cc9190610cce565b9150506101da565b60009150505b92915050565b600260009054906101000a900473ffffffffffffffffffffffffffffffffffffffff1681565b600060405180608001604052803373ffffffffffffffffffffffffffffffffffffffff168152602001428152602001848152602001838152509050600061024b61045d565b9050600260009054906101000a900473ffffffffffffffffffffffffffffffffffffffff1673ffffffffffffffffffffffffffffffffffffffff1663f968954e33856040518363ffffffff1660e01b81526004016102aa929190610d10565b600060405180830381600087803b1580156102c457600080fd5b505af11580156102d8573d6000803e3d6000fd5b50505050816001600083815260200190815260200160002060008201518160000160006101000a81548173ffffffffffffffffffffffffffffffffffffffff021916908373ffffffffffffffffffffffffffffffffffffffff16021790555060208201518160010155604082015181600201556060820151816003015590505061036b81610366606461048d565b6104cd565b50505050565b7f000000000000000000000000000000000000000000000000000000000000000073ffffffffffffffffffffffffffffffffffffffff163373ffffffffffffffffffffffffffffffffffffffff16146103ff576040517f08c379a00000000000000000000000000000000000000000000000000000000081526004016103f690610d96565b60405180910390fd5b61040982826104cd565b5050565b60016020528060005260406000206000915090508060000160009054906101000a900473ffffffffffffffffffffffffffffffffffffffff16908060010154908060020154908060030154905084565b60004442604051602001610472929190610dd7565b60405160208183030381529060405280519060200120905090565b60008144426040516020016104a3929190610dd7565b6040516020818303038152906040528051906020012060001c6104c69190610e32565b9050919050565b60006104de8260036006600161066a565b90506000600160008581526020019081526020016000206040518060800160405290816000820160009054906101000a900473ffffffffffffffffffffffffffffffffffffffff1673ffffffffffffffffffffffffffffffffffffffff1673ffffffffffffffffffffffffffffffffffffffff1681526020016001820154815260200160028201548152602001600382015481525050905060006105828284610115565b9050600081111561066257600260009054906101000a900473ffffffffffffffffffffffffffffffffffffffff1673ffffffffffffffffffffffffffffffffffffffff1663bc4b33658360000151836040518363ffffffff1660e01b81526004016105ee929190610d10565b600060405180830381600087803b15801561060857600080fd5b505af115801561061c573d6000803e3d6000fd5b505050507f79166ed647ea7e9efa3de349320bb43e28d04637a86429193d882d8f0e01fb43826000015182604051610655929190610d10565b60405180910390a1610663565b5b5050505050565b60608367ffffffffffffffff81111561068657610685610769565b5b6040519080825280602002602001820160405280156106b45781602001602082028036833780820191505090505b50905060005b8481101561073657828487836040516020016106d7929190610e63565b6040516020818303038152906040528051906020012060001c6106fa9190610e32565b6107049190610c52565b82828151811061071757610716610bf4565b5b602002602001018181525050808061072e90610c86565b9150506106ba565b50949350505050565b6000604051905090565b600080fd5b600080fd5b600080fd5b6000601f19601f8301169050919050565b7f4e487b7100000000000000000000000000000000000000000000000000000000600052604160045260246000fd5b6107a182610758565b810181811067ffffffffffffffff821117156107c0576107bf610769565b5b80604052505050565b60006107d361073f565b90506107df8282610798565b919050565b600073ffffffffffffffffffffffffffffffffffffffff82169050919050565b600061080f826107e4565b9050919050565b61081f81610804565b811461082a57600080fd5b50565b60008135905061083c81610816565b92915050565b6000819050919050565b61085581610842565b811461086057600080fd5b50565b6000813590506108728161084c565b92915050565b60006080828403121561088e5761088d610753565b5b61089860806107c9565b905060006108a88482850161082d565b60008301525060206108bc84828501610863565b60208301525060406108d084828501610863565b60408301525060606108e484828501610863565b60608301525092915050565b600080fd5b600067ffffffffffffffff8211156109105761090f610769565b5b602082029050602081019050919050565b600080fd5b6000610939610934846108f5565b6107c9565b9050808382526020820190506020840283018581111561095c5761095b610921565b5b835b8181101561098557806109718882610863565b84526020840193505060208101905061095e565b5050509392505050565b600082601f8301126109a4576109a36108f0565b5b81356109b4848260208601610926565b91505092915050565b60008060a083850312156109d4576109d3610749565b5b60006109e285828601610878565b925050608083013567ffffffffffffffff811115610a0357610a0261074e565b5b610a0f8582860161098f565b9150509250929050565b610a2281610842565b82525050565b6000602082019050610a3d6000830184610a19565b92915050565b6000819050919050565b6000610a68610a63610a5e846107e4565b610a43565b6107e4565b9050919050565b6000610a7a82610a4d565b9050919050565b6000610a8c82610a6f565b9050919050565b610a9c81610a81565b82525050565b6000602082019050610ab76000830184610a93565b92915050565b60008060408385031215610ad457610ad3610749565b5b6000610ae285828601610863565b9250506020610af385828601610863565b9150509250929050565b6000819050919050565b610b1081610afd565b8114610b1b57600080fd5b50565b600081359050610b2d81610b07565b92915050565b60008060408385031215610b4a57610b49610749565b5b6000610b5885828601610b1e565b9250506020610b6985828601610863565b9150509250929050565b600060208284031215610b8957610b88610749565b5b6000610b9784828501610b1e565b91505092915050565b610ba981610804565b82525050565b6000608082019050610bc46000830187610ba0565b610bd16020830186610a19565b610bde6040830185610a19565b610beb6060830184610a19565b95945050505050565b7f4e487b7100000000000000000000000000000000000000000000000000000000600052603260045260246000fd5b7f4e487b7100000000000000000000000000000000000000000000000000000000600052601160045260246000fd5b6000610c5d82610842565b9150610c6883610842565b9250828201905080821115610c8057610c7f610c23565b5b92915050565b6000610c9182610842565b91507fffffffffffffffffffffffffffffffffffffffffffffffffffffffffffffffff8203610cc357610cc2610c23565b5b600182019050919050565b6000610cd982610842565b9150610ce483610842565b9250828202610cf281610842565b91508282048414831517610d0957610d08610c23565b5b5092915050565b6000604082019050610d256000830185610ba0565b610d326020830184610a19565b9392505050565b600082825260208201905092915050565b7f4f6e6c7920565246436f6f7264696e61746f722063616e2066756c66696c6c00600082015250565b6000610d80601f83610d39565b9150610d8b82610d4a565b602082019050919050565b60006020820190508181036000830152610daf81610d73565b9050919050565b6000819050919050565b610dd1610dcc82610842565b610db6565b82525050565b6000610de38285610dc0565b602082019150610df38284610dc0565b6020820191508190509392505050565b7f4e487b7100000000000000000000000000000000000000000000000000000000600052601260045260246000fd5b6000610e3d82610842565b9150610e4883610842565b925082610e5857610e57610e03565b5b828206905092915050565b6000604082019050610e786000830185610a19565b610e856020830184610a19565b939250505056fea26469706673582212205523c825cf32ebeb2c1bcbcd771d5a222133f36a06b3b81e0e966310d9351b8264736f6c63430008140033",
  "linkReferences": {},
  "deployedLinkReferences": {}
}