{
  "_format": "hh-sol-artifact-1",
  "contractName": "ChuckALuck",
  "sourceName": "contracts/ChuckALuck.sol",
  "abi": [
    {
      "inputs": [
        {
          "internalType": "address",
          "name": "vrfCoordinator",
          "type": "address"
        },
        {
          "internalType": "address",
          "name": "linkToken",
          "type": "address"
        },
        {
          "internalType": "bytes32",
          "name": "keyHash",
          "type": "bytes32"
        },
        {
          "internalType": "uint256",
          "name": "fee",
          "type": "uint256"
        },
        {
          "internalType": "address",
          "name": "_addr",
          "type": "address"
        }
      ],
      "stateMutability": "nonpayable",
      "type": "constructor"
    },
    {
      "anonymous": false,
      "inputs": [
        {
          "indexed": false,
          "internalType": "address",
          "name": "addr",
          "type": "address"
        },
        {
          "indexed": false,
          "internalType": "uint256",
          "name": "amounts",
          "type": "uint256"
        }
      ],
      "name": "WinFund",
      "type": "event"
    },
    {
      "inputs": [],
      "name": "bank",
      "outputs": [
        {
          "internalType": "contract Bank",
          "name": "",
          "type": "address"
        }
      ],
      "stateMutability": "view",
      "type": "function"
    },
    {
      "inputs": [
        {
          "internalType": "bytes32",
          "name": "",
          "type": "bytes32"
        }
      ],
      "name": "bets",
      "outputs": [
        {
          "internalType": "address",
          "name": "beter",
          "type": "address"
        },
        {
          "internalType": "uint256",
          "name": "bet_time",
          "type": "uint256"
        },
        {
          "internalType": "uint256",
          "name": "bet_num",
          "type": "uint256"
        },
        {
          "internalType": "uint256",
          "name": "bet_amounts",
          "type": "uint256"
        }
      ],
      "stateMutability": "view",
      "type": "function"
    },
    {
      "inputs": [
        {
          "components": [
            {
              "internalType": "address",
              "name": "beter",
              "type": "address"
            },
            {
              "internalType": "uint256",
              "name": "bet_time",
              "type": "uint256"
            },
            {
              "internalType": "uint256",
              "name": "bet_num",
              "type": "uint256"
            },
            {
              "internalType": "uint256",
              "name": "bet_amounts",
              "type": "uint256"
            }
          ],
          "internalType": "struct ChuckALuck.Bet",
          "name": "bet",
          "type": "tuple"
        },
        {
          "internalType": "uint256[]",
          "name": "_roll",
          "type": "uint256[]"
        }
      ],
      "name": "calcWinner",
      "outputs": [
        {
          "internalType": "uint256",
          "name": "",
          "type": "uint256"
        }
      ],
      "stateMutability": "pure",
      "type": "function"
    },
    {
      "inputs": [
        {
          "internalType": "uint256",
          "name": "_index",
          "type": "uint256"
        }
      ],
      "name": "getRoll",
      "outputs": [
        {
          "internalType": "uint256",
          "name": "",
          "type": "uint256"
        },
        {
          "internalType": "uint256",
          "name": "",
          "type": "uint256"
        },
        {
          "internalType": "uint256",
          "name": "",
          "type": "uint256"
        }
      ],
      "stateMutability": "view",
      "type": "function"
    },
    {
      "inputs": [],
      "name": "getRolledCount",
      "outputs": [
        {
          "internalType": "uint256",
          "name": "",
          "type": "uint256"
        }
      ],
      "stateMutability": "view",
      "type": "function"
    },
    {
      "inputs": [
        {
          "internalType": "uint256",
          "name": "_bet_num",
          "type": "uint256"
        },
        {
          "internalType": "uint256",
          "name": "_bet_amounts",
          "type": "uint256"
        }
      ],
      "name": "place_bet",
      "outputs": [],
      "stateMutability": "nonpayable",
      "type": "function"
    },
    {
      "inputs": [
        {
          "internalType": "bytes32",
          "name": "requestId",
          "type": "bytes32"
        },
        {
          "internalType": "uint256",
          "name": "randomness",
          "type": "uint256"
        }
      ],
      "name": "rawFulfillRandomness",
      "outputs": [],
      "stateMutability": "nonpayable",
      "type": "function"
    },
    {
      "inputs": [
        {
          "internalType": "uint256",
          "name": "",
          "type": "uint256"
        },
        {
          "internalType": "uint256",
          "name": "",
          "type": "uint256"
        }
      ],
      "name": "rolleds",
      "outputs": [
        {
          "internalType": "uint256",
          "name": "",
          "type": "uint256"
        }
      ],
      "stateMutability": "view",
      "type": "function"
    }
  ],
  "bytecode": "0x60c06040523480156200001157600080fd5b5060405162001415380380620014158339818101604052810190620000379190620001dd565b84848173ffffffffffffffffffffffffffffffffffffffff1660a08173ffffffffffffffffffffffffffffffffffffffff16815250508073ffffffffffffffffffffffffffffffffffffffff1660808173ffffffffffffffffffffffffffffffffffffffff16815250505050826004819055508160058190555080600360006101000a81548173ffffffffffffffffffffffffffffffffffffffff021916908373ffffffffffffffffffffffffffffffffffffffff160217905550505050505062000265565b600080fd5b600073ffffffffffffffffffffffffffffffffffffffff82169050919050565b60006200012f8262000102565b9050919050565b620001418162000122565b81146200014d57600080fd5b50565b600081519050620001618162000136565b92915050565b6000819050919050565b6200017c8162000167565b81146200018857600080fd5b50565b6000815190506200019c8162000171565b92915050565b6000819050919050565b620001b781620001a2565b8114620001c357600080fd5b50565b600081519050620001d781620001ac565b92915050565b600080600080600060a08688031215620001fc57620001fb620000fd565b5b60006200020c8882890162000150565b95505060206200021f8882890162000150565b945050604062000232888289016200018b565b93505060606200024588828901620001c6565b9250506080620002588882890162000150565b9150509295509295909350565b60805160a05161118d62000288600039600061043101526000505061118d6000f3fe608060405234801561001057600080fd5b50600436106100885760003560e01c806394985ddd1161005b57806394985ddd146101155780639d3e0d0614610131578063a784cb1114610161578063c902c3ae1461019357610088565b806343ca45de1461008d57806360128241146100ab57806376cdb03b146100db57806391c43ab7146100f9575b600080fd5b6100956101c6565b6040516100a291906109bf565b60405180910390f35b6100c560048036038101906100c09190610c4e565b6101d3565b6040516100d291906109bf565b60405180910390f35b6100e361029e565b6040516100f09190610d09565b60405180910390f35b610113600480360381019061010e9190610d24565b6102c4565b005b61012f600480360381019061012a9190610d9a565b61042f565b005b61014b60048036038101906101469190610d24565b6104cb565b60405161015891906109bf565b60405180910390f35b61017b60048036038101906101769190610dda565b610508565b60405161018a93929190610e07565b60405180910390f35b6101ad60048036038101906101a89190610e3e565b6105ce565b6040516101bd9493929190610e7a565b60405180910390f35b6000600280549050905090565b6000806000905060005b835181101561022e5784604001518482815181106101fe576101fd610ebf565b5b60200260200101510361021b576001826102189190610f1d565b91505b808061022690610f51565b9150506101dd565b506001810361025057600284606001516102489190610f99565b915050610298565b6002810361027157600384606001516102699190610f99565b915050610298565b6003810361029257600b846060015161028a9190610f99565b915050610298565b60009150505b92915050565b600360009054906101000a900473ffffffffffffffffffffffffffffffffffffffff1681565b600060405180608001604052803373ffffffffffffffffffffffffffffffffffffffff168152602001428152602001848152602001838152509050600061030961061e565b9050600360009054906101000a900473ffffffffffffffffffffffffffffffffffffffff1673ffffffffffffffffffffffffffffffffffffffff1663f968954e33856040518363ffffffff1660e01b8152600401610368929190610fdb565b600060405180830381600087803b15801561038257600080fd5b505af1158015610396573d6000803e3d6000fd5b50505050816001600083815260200190815260200160002060008201518160000160006101000a81548173ffffffffffffffffffffffffffffffffffffffff021916908373ffffffffffffffffffffffffffffffffffffffff16021790555060208201518160010155604082015181600201556060820151816003015590505061042981610424606461064e565b61068e565b50505050565b7f000000000000000000000000000000000000000000000000000000000000000073ffffffffffffffffffffffffffffffffffffffff163373ffffffffffffffffffffffffffffffffffffffff16146104bd576040517f08c379a00000000000000000000000000000000000000000000000000000000081526004016104b490611061565b60405180910390fd5b6104c7828261068e565b5050565b600282815481106104db57600080fd5b9060005260206000200181815481106104f357600080fd5b90600052602060002001600091509150505481565b60008060006002848154811061052157610520610ebf565b5b9060005260206000200160008154811061053e5761053d610ebf565b5b90600052602060002001546002858154811061055d5761055c610ebf565b5b9060005260206000200160018154811061057a57610579610ebf565b5b90600052602060002001546002868154811061059957610598610ebf565b5b906000526020600020016002815481106105b6576105b5610ebf565b5b90600052602060002001549250925092509193909250565b60016020528060005260406000206000915090508060000160009054906101000a900473ffffffffffffffffffffffffffffffffffffffff16908060010154908060020154908060030154905084565b600044426040516020016106339291906110a2565b60405160208183030381529060405280519060200120905090565b60008144426040516020016106649291906110a2565b6040516020818303038152906040528051906020012060001c61068791906110fd565b9050919050565b600061069f82600360066001610867565b90506002819080600181540180825580915050600190039060005260206000200160009091909190915090805190602001906106dc92919061093c565b506000600160008581526020019081526020016000206040518060800160405290816000820160009054906101000a900473ffffffffffffffffffffffffffffffffffffffff1673ffffffffffffffffffffffffffffffffffffffff1673ffffffffffffffffffffffffffffffffffffffff16815260200160018201548152602001600282015481526020016003820154815250509050600061077f82846101d3565b9050600081111561085f57600360009054906101000a900473ffffffffffffffffffffffffffffffffffffffff1673ffffffffffffffffffffffffffffffffffffffff1663bc4b33658360000151836040518363ffffffff1660e01b81526004016107eb929190610fdb565b600060405180830381600087803b15801561080557600080fd5b505af1158015610819573d6000803e3d6000fd5b505050507f79166ed647ea7e9efa3de349320bb43e28d04637a86429193d882d8f0e01fb43826000015182604051610852929190610fdb565b60405180910390a1610860565b5b5050505050565b60608367ffffffffffffffff81111561088357610882610a04565b5b6040519080825280602002602001820160405280156108b15781602001602082028036833780820191505090505b50905060005b8481101561093357828487836040516020016108d492919061112e565b6040516020818303038152906040528051906020012060001c6108f791906110fd565b6109019190610f1d565b82828151811061091457610913610ebf565b5b602002602001018181525050808061092b90610f51565b9150506108b7565b50949350505050565b828054828255906000526020600020908101928215610978579160200282015b8281111561097757825182559160200191906001019061095c565b5b5090506109859190610989565b5090565b5b808211156109a257600081600090555060010161098a565b5090565b6000819050919050565b6109b9816109a6565b82525050565b60006020820190506109d460008301846109b0565b92915050565b6000604051905090565b600080fd5b600080fd5b600080fd5b6000601f19601f8301169050919050565b7f4e487b7100000000000000000000000000000000000000000000000000000000600052604160045260246000fd5b610a3c826109f3565b810181811067ffffffffffffffff82111715610a5b57610a5a610a04565b5b80604052505050565b6000610a6e6109da565b9050610a7a8282610a33565b919050565b600073ffffffffffffffffffffffffffffffffffffffff82169050919050565b6000610aaa82610a7f565b9050919050565b610aba81610a9f565b8114610ac557600080fd5b50565b600081359050610ad781610ab1565b92915050565b610ae6816109a6565b8114610af157600080fd5b50565b600081359050610b0381610add565b92915050565b600060808284031215610b1f57610b1e6109ee565b5b610b296080610a64565b90506000610b3984828501610ac8565b6000830152506020610b4d84828501610af4565b6020830152506040610b6184828501610af4565b6040830152506060610b7584828501610af4565b60608301525092915050565b600080fd5b600067ffffffffffffffff821115610ba157610ba0610a04565b5b602082029050602081019050919050565b600080fd5b6000610bca610bc584610b86565b610a64565b90508083825260208201905060208402830185811115610bed57610bec610bb2565b5b835b81811015610c165780610c028882610af4565b845260208401935050602081019050610bef565b5050509392505050565b600082601f830112610c3557610c34610b81565b5b8135610c45848260208601610bb7565b91505092915050565b60008060a08385031215610c6557610c646109e4565b5b6000610c7385828601610b09565b925050608083013567ffffffffffffffff811115610c9457610c936109e9565b5b610ca085828601610c20565b9150509250929050565b6000819050919050565b6000610ccf610cca610cc584610a7f565b610caa565b610a7f565b9050919050565b6000610ce182610cb4565b9050919050565b6000610cf382610cd6565b9050919050565b610d0381610ce8565b82525050565b6000602082019050610d1e6000830184610cfa565b92915050565b60008060408385031215610d3b57610d3a6109e4565b5b6000610d4985828601610af4565b9250506020610d5a85828601610af4565b9150509250929050565b6000819050919050565b610d7781610d64565b8114610d8257600080fd5b50565b600081359050610d9481610d6e565b92915050565b60008060408385031215610db157610db06109e4565b5b6000610dbf85828601610d85565b9250506020610dd085828601610af4565b9150509250929050565b600060208284031215610df057610def6109e4565b5b6000610dfe84828501610af4565b91505092915050565b6000606082019050610e1c60008301866109b0565b610e2960208301856109b0565b610e3660408301846109b0565b949350505050565b600060208284031215610e5457610e536109e4565b5b6000610e6284828501610d85565b91505092915050565b610e7481610a9f565b82525050565b6000608082019050610e8f6000830187610e6b565b610e9c60208301866109b0565b610ea960408301856109b0565b610eb660608301846109b0565b95945050505050565b7f4e487b7100000000000000000000000000000000000000000000000000000000600052603260045260246000fd5b7f4e487b7100000000000000000000000000000000000000000000000000000000600052601160045260246000fd5b6000610f28826109a6565b9150610f33836109a6565b9250828201905080821115610f4b57610f4a610eee565b5b92915050565b6000610f5c826109a6565b91507fffffffffffffffffffffffffffffffffffffffffffffffffffffffffffffffff8203610f8e57610f8d610eee565b5b600182019050919050565b6000610fa4826109a6565b9150610faf836109a6565b9250828202610fbd816109a6565b91508282048414831517610fd457610fd3610eee565b5b5092915050565b6000604082019050610ff06000830185610e6b565b610ffd60208301846109b0565b9392505050565b600082825260208201905092915050565b7f4f6e6c7920565246436f6f7264696e61746f722063616e2066756c66696c6c00600082015250565b600061104b601f83611004565b915061105682611015565b602082019050919050565b6000602082019050818103600083015261107a8161103e565b9050919050565b6000819050919050565b61109c611097826109a6565b611081565b82525050565b60006110ae828561108b565b6020820191506110be828461108b565b6020820191508190509392505050565b7f4e487b7100000000000000000000000000000000000000000000000000000000600052601260045260246000fd5b6000611108826109a6565b9150611113836109a6565b925082611123576111226110ce565b5b828206905092915050565b600060408201905061114360008301856109b0565b61115060208301846109b0565b939250505056fea2646970667358221220d7d2d564ca86a22e0af36148572ce3df2662f69e09584085bb8f48aa64b43ad364736f6c63430008140033",
  "linkReferences": {},
  "deployedLinkReferences": {}
}