{
  "_format": "hh-sol-artifact-1",
  "contractName": "Bank",
  "sourceName": "contracts/Bank.sol",
  "abi": [
    {
      "inputs": [],
      "stateMutability": "nonpayable",
      "type": "constructor"
    },
    {
      "inputs": [
        {
          "internalType": "address",
          "name": "owner",
          "type": "address"
        }
      ],
      "name": "OwnableInvalidOwner",
      "type": "error"
    },
    {
      "inputs": [
        {
          "internalType": "address",
          "name": "account",
          "type": "address"
        }
      ],
      "name": "OwnableUnauthorizedAccount",
      "type": "error"
    },
    {
      "anonymous": false,
      "inputs": [
        {
          "indexed": false,
          "internalType": "address",
          "name": "_addr",
          "type": "address"
        },
        {
          "indexed": false,
          "internalType": "uint256",
          "name": "_amount",
          "type": "uint256"
        }
      ],
      "name": "Deposit",
      "type": "event"
    },
    {
      "anonymous": false,
      "inputs": [
        {
          "indexed": true,
          "internalType": "address",
          "name": "previousOwner",
          "type": "address"
        },
        {
          "indexed": true,
          "internalType": "address",
          "name": "newOwner",
          "type": "address"
        }
      ],
      "name": "OwnershipTransferred",
      "type": "event"
    },
    {
      "anonymous": false,
      "inputs": [
        {
          "indexed": false,
          "internalType": "address",
          "name": "_addr",
          "type": "address"
        },
        {
          "indexed": false,
          "internalType": "uint256",
          "name": "_amount",
          "type": "uint256"
        }
      ],
      "name": "WithDraw",
      "type": "event"
    },
    {
      "inputs": [
        {
          "internalType": "address",
          "name": "_addr",
          "type": "address"
        },
        {
          "internalType": "uint256",
          "name": "_amount",
          "type": "uint256"
        }
      ],
      "name": "addFunds",
      "outputs": [],
      "stateMutability": "nonpayable",
      "type": "function"
    },
    {
      "inputs": [
        {
          "internalType": "uint256",
          "name": "",
          "type": "uint256"
        }
      ],
      "name": "allowedCallers",
      "outputs": [
        {
          "internalType": "address",
          "name": "",
          "type": "address"
        }
      ],
      "stateMutability": "view",
      "type": "function"
    },
    {
      "inputs": [
        {
          "internalType": "address",
          "name": "_addr",
          "type": "address"
        }
      ],
      "name": "balanceOf",
      "outputs": [
        {
          "internalType": "uint256",
          "name": "",
          "type": "uint256"
        }
      ],
      "stateMutability": "view",
      "type": "function"
    },
    {
      "inputs": [],
      "name": "deposit",
      "outputs": [],
      "stateMutability": "payable",
      "type": "function"
    },
    {
      "inputs": [],
      "name": "owner",
      "outputs": [
        {
          "internalType": "address",
          "name": "",
          "type": "address"
        }
      ],
      "stateMutability": "view",
      "type": "function"
    },
    {
      "inputs": [],
      "name": "renounceOwnership",
      "outputs": [],
      "stateMutability": "nonpayable",
      "type": "function"
    },
    {
      "inputs": [
        {
          "internalType": "address",
          "name": "_allowedCaller",
          "type": "address"
        }
      ],
      "name": "setAllowCaller",
      "outputs": [],
      "stateMutability": "nonpayable",
      "type": "function"
    },
    {
      "inputs": [
        {
          "internalType": "address",
          "name": "_addr",
          "type": "address"
        },
        {
          "internalType": "uint256",
          "name": "_amount",
          "type": "uint256"
        }
      ],
      "name": "subFunds",
      "outputs": [],
      "stateMutability": "nonpayable",
      "type": "function"
    },
    {
      "inputs": [
        {
          "internalType": "address",
          "name": "newOwner",
          "type": "address"
        }
      ],
      "name": "transferOwnership",
      "outputs": [],
      "stateMutability": "nonpayable",
      "type": "function"
    },
    {
      "inputs": [
        {
          "internalType": "uint256",
          "name": "_amount",
          "type": "uint256"
        }
      ],
      "name": "withDraw",
      "outputs": [],
      "stateMutability": "nonpayable",
      "type": "function"
    }
  ],
  "bytecode": "0x608060405234801561001057600080fd5b5033600073ffffffffffffffffffffffffffffffffffffffff168173ffffffffffffffffffffffffffffffffffffffff16036100845760006040517f1e4fbdf700000000000000000000000000000000000000000000000000000000815260040161007b919061019e565b60405180910390fd5b6100938161009960201b60201c565b506101b9565b60008060009054906101000a900473ffffffffffffffffffffffffffffffffffffffff169050816000806101000a81548173ffffffffffffffffffffffffffffffffffffffff021916908373ffffffffffffffffffffffffffffffffffffffff1602179055508173ffffffffffffffffffffffffffffffffffffffff168173ffffffffffffffffffffffffffffffffffffffff167f8be0079c531659141344cd1fd0a4f28419497f9722a3daafe3b4186f6b6457e060405160405180910390a35050565b600073ffffffffffffffffffffffffffffffffffffffff82169050919050565b60006101888261015d565b9050919050565b6101988161017d565b82525050565b60006020820190506101b3600083018461018f565b92915050565b610eeb806101c86000396000f3fe6080604052600436106100915760003560e01c8063bd53915a11610059578063bd53915a14610167578063bf32619114610190578063d0e30db0146101cd578063f2fde38b146101d7578063f968954e1461020057610091565b806314174f331461009657806370a08231146100bf578063715018a6146100fc5780638da5cb5b14610113578063bc4b33651461013e575b600080fd5b3480156100a257600080fd5b506100bd60048036038101906100b89190610ac9565b610229565b005b3480156100cb57600080fd5b506100e660048036038101906100e19190610b54565b6103c6565b6040516100f39190610b90565b60405180910390f35b34801561010857600080fd5b5061011161040f565b005b34801561011f57600080fd5b50610128610423565b6040516101359190610bba565b60405180910390f35b34801561014a57600080fd5b5061016560048036038101906101609190610bd5565b61044c565b005b34801561017357600080fd5b5061018e60048036038101906101899190610b54565b6105c0565b005b34801561019c57600080fd5b506101b760048036038101906101b29190610ac9565b61062e565b6040516101c49190610bba565b60405180910390f35b6101d561066d565b005b3480156101e357600080fd5b506101fe60048036038101906101f99190610b54565b610741565b005b34801561020c57600080fd5b5061022760048036038101906102229190610bd5565b6107c7565b005b6000811161026c576040517f08c379a000000000000000000000000000000000000000000000000000000000815260040161026390610c72565b60405180910390fd5b80600160003373ffffffffffffffffffffffffffffffffffffffff1673ffffffffffffffffffffffffffffffffffffffff16815260200190815260200160002054116102ed576040517f08c379a00000000000000000000000000000000000000000000000000000000081526004016102e490610cde565b60405180910390fd5b80600160003373ffffffffffffffffffffffffffffffffffffffff1673ffffffffffffffffffffffffffffffffffffffff168152602001908152602001600020600082825461033c9190610d2d565b925050819055503373ffffffffffffffffffffffffffffffffffffffff166108fc829081150290604051600060405180830381858888f19350505050158015610389573d6000803e3d6000fd5b507f14b43ca4c63c5423006ad978eab8a14386476b52f1d4728070ea20a36f13e83b33826040516103bb929190610d61565b60405180910390a150565b6000600160008373ffffffffffffffffffffffffffffffffffffffff1673ffffffffffffffffffffffffffffffffffffffff168152602001908152602001600020549050919050565b61041761093b565b61042160006109c2565b565b60008060009054906101000a900473ffffffffffffffffffffffffffffffffffffffff16905090565b6000805b6002805490508160ff1610156104ec5760028160ff168154811061047757610476610d8a565b5b9060005260206000200160009054906101000a900473ffffffffffffffffffffffffffffffffffffffff1673ffffffffffffffffffffffffffffffffffffffff163373ffffffffffffffffffffffffffffffffffffffff16036104d957600191505b80806104e490610dc6565b915050610450565b508061052d576040517f08c379a000000000000000000000000000000000000000000000000000000000815260040161052490610e61565b60405180910390fd5b81600160008573ffffffffffffffffffffffffffffffffffffffff1673ffffffffffffffffffffffffffffffffffffffff168152602001908152602001600020546105789190610e81565b600160008573ffffffffffffffffffffffffffffffffffffffff1673ffffffffffffffffffffffffffffffffffffffff16815260200190815260200160002081905550505050565b6105c861093b565b6002819080600181540180825580915050600190039060005260206000200160009091909190916101000a81548173ffffffffffffffffffffffffffffffffffffffff021916908373ffffffffffffffffffffffffffffffffffffffff16021790555050565b6002818154811061063e57600080fd5b906000526020600020016000915054906101000a900473ffffffffffffffffffffffffffffffffffffffff1681565b600034116106b0576040517f08c379a00000000000000000000000000000000000000000000000000000000081526004016106a790610c72565b60405180910390fd5b34600160003373ffffffffffffffffffffffffffffffffffffffff1673ffffffffffffffffffffffffffffffffffffffff16815260200190815260200160002060008282546106ff9190610e81565b925050819055507fe1fffcc4923d04b559f4d29a8bfc6cda04eb5b0d3c460751c2402c5c5cc9109c3334604051610737929190610d61565b60405180910390a1565b61074961093b565b600073ffffffffffffffffffffffffffffffffffffffff168173ffffffffffffffffffffffffffffffffffffffff16036107bb5760006040517f1e4fbdf70000000000000000000000000000000000000000000000000000000081526004016107b29190610bba565b60405180910390fd5b6107c4816109c2565b50565b6000805b6002805490508160ff1610156108675760028160ff16815481106107f2576107f1610d8a565b5b9060005260206000200160009054906101000a900473ffffffffffffffffffffffffffffffffffffffff1673ffffffffffffffffffffffffffffffffffffffff163373ffffffffffffffffffffffffffffffffffffffff160361085457600191505b808061085f90610dc6565b9150506107cb565b50806108a8576040517f08c379a000000000000000000000000000000000000000000000000000000000815260040161089f90610e61565b60405180910390fd5b81600160008573ffffffffffffffffffffffffffffffffffffffff1673ffffffffffffffffffffffffffffffffffffffff168152602001908152602001600020546108f39190610d2d565b600160008573ffffffffffffffffffffffffffffffffffffffff1673ffffffffffffffffffffffffffffffffffffffff16815260200190815260200160002081905550505050565b610943610a86565b73ffffffffffffffffffffffffffffffffffffffff16610961610423565b73ffffffffffffffffffffffffffffffffffffffff16146109c057610984610a86565b6040517f118cdaa70000000000000000000000000000000000000000000000000000000081526004016109b79190610bba565b60405180910390fd5b565b60008060009054906101000a900473ffffffffffffffffffffffffffffffffffffffff169050816000806101000a81548173ffffffffffffffffffffffffffffffffffffffff021916908373ffffffffffffffffffffffffffffffffffffffff1602179055508173ffffffffffffffffffffffffffffffffffffffff168173ffffffffffffffffffffffffffffffffffffffff167f8be0079c531659141344cd1fd0a4f28419497f9722a3daafe3b4186f6b6457e060405160405180910390a35050565b600033905090565b600080fd5b6000819050919050565b610aa681610a93565b8114610ab157600080fd5b50565b600081359050610ac381610a9d565b92915050565b600060208284031215610adf57610ade610a8e565b5b6000610aed84828501610ab4565b91505092915050565b600073ffffffffffffffffffffffffffffffffffffffff82169050919050565b6000610b2182610af6565b9050919050565b610b3181610b16565b8114610b3c57600080fd5b50565b600081359050610b4e81610b28565b92915050565b600060208284031215610b6a57610b69610a8e565b5b6000610b7884828501610b3f565b91505092915050565b610b8a81610a93565b82525050565b6000602082019050610ba56000830184610b81565b92915050565b610bb481610b16565b82525050565b6000602082019050610bcf6000830184610bab565b92915050565b60008060408385031215610bec57610beb610a8e565b5b6000610bfa85828601610b3f565b9250506020610c0b85828601610ab4565b9150509250929050565b600082825260208201905092915050565b7f616d6f756e7420746f20736d616c6c0000000000000000000000000000000000600082015250565b6000610c5c600f83610c15565b9150610c6782610c26565b602082019050919050565b60006020820190508181036000830152610c8b81610c4f565b9050919050565b7f6e6f20656e6f7567746820616d6f756e74000000000000000000000000000000600082015250565b6000610cc8601183610c15565b9150610cd382610c92565b602082019050919050565b60006020820190508181036000830152610cf781610cbb565b9050919050565b7f4e487b7100000000000000000000000000000000000000000000000000000000600052601160045260246000fd5b6000610d3882610a93565b9150610d4383610a93565b9250828203905081811115610d5b57610d5a610cfe565b5b92915050565b6000604082019050610d766000830185610bab565b610d836020830184610b81565b9392505050565b7f4e487b7100000000000000000000000000000000000000000000000000000000600052603260045260246000fd5b600060ff82169050919050565b6000610dd182610db9565b915060ff8203610de457610de3610cfe565b5b600182019050919050565b7f4163636573732064656e6965643a2043616c6c6572206973206e6f742074686560008201527f20616c6c6f77656420636f6e7472616374000000000000000000000000000000602082015250565b6000610e4b603183610c15565b9150610e5682610def565b604082019050919050565b60006020820190508181036000830152610e7a81610e3e565b9050919050565b6000610e8c82610a93565b9150610e9783610a93565b9250828201905080821115610eaf57610eae610cfe565b5b9291505056fea26469706673582212209337ef8fb5a69b56dc1025818735e7e6920f192f87a2876bbc4dcec99d6baac164736f6c63430008140033",
  "linkReferences": {},
  "deployedLinkReferences": {}
}